{
  "_format": "hh-sol-artifact-1",
  "contractName": "Stream",
  "sourceName": "contracts/stream.sol",
  "abi": [
    {
      "inputs": [
        {
          "internalType": "uint256",
          "name": "_supply",
          "type": "uint256"
        },
        {
          "internalType": "address",
          "name": "_tokenAdd",
          "type": "address"
        }
      ],
      "stateMutability": "nonpayable",
      "type": "constructor"
    },
    {
      "anonymous": false,
      "inputs": [
        {
          "indexed": true,
          "internalType": "address",
          "name": "owner",
          "type": "address"
        },
        {
          "indexed": true,
          "internalType": "address",
          "name": "spender",
          "type": "address"
        },
        {
          "indexed": false,
          "internalType": "uint256",
          "name": "value",
          "type": "uint256"
        }
      ],
      "name": "Approval",
      "type": "event"
    },
    {
      "anonymous": false,
      "inputs": [
        {
          "indexed": true,
          "internalType": "address",
          "name": "previousOwner",
          "type": "address"
        },
        {
          "indexed": true,
          "internalType": "address",
          "name": "newOwner",
          "type": "address"
        }
      ],
      "name": "OwnershipTransferred",
      "type": "event"
    },
    {
      "anonymous": false,
      "inputs": [
        {
          "indexed": true,
          "internalType": "address",
          "name": "from",
          "type": "address"
        },
        {
          "indexed": true,
          "internalType": "address",
          "name": "to",
          "type": "address"
        },
        {
          "indexed": false,
          "internalType": "uint256",
          "name": "value",
          "type": "uint256"
        }
      ],
      "name": "Transfer",
      "type": "event"
    },
    {
      "inputs": [
        {
          "internalType": "address",
          "name": "owner",
          "type": "address"
        },
        {
          "internalType": "address",
          "name": "spender",
          "type": "address"
        }
      ],
      "name": "allowance",
      "outputs": [
        {
          "internalType": "uint256",
          "name": "",
          "type": "uint256"
        }
      ],
      "stateMutability": "view",
      "type": "function"
    },
    {
      "inputs": [
        {
          "internalType": "address",
          "name": "spender",
          "type": "address"
        },
        {
          "internalType": "uint256",
          "name": "amount",
          "type": "uint256"
        }
      ],
      "name": "approve",
      "outputs": [
        {
          "internalType": "bool",
          "name": "",
          "type": "bool"
        }
      ],
      "stateMutability": "nonpayable",
      "type": "function"
    },
    {
      "inputs": [
        {
          "internalType": "address",
          "name": "account",
          "type": "address"
        }
      ],
      "name": "balanceOf",
      "outputs": [
        {
          "internalType": "uint256",
          "name": "",
          "type": "uint256"
        }
      ],
      "stateMutability": "view",
      "type": "function"
    },
    {
      "inputs": [],
      "name": "decimals",
      "outputs": [
        {
          "internalType": "uint8",
          "name": "",
          "type": "uint8"
        }
      ],
      "stateMutability": "view",
      "type": "function"
    },
    {
      "inputs": [
        {
          "internalType": "address",
          "name": "spender",
          "type": "address"
        },
        {
          "internalType": "uint256",
          "name": "subtractedValue",
          "type": "uint256"
        }
      ],
      "name": "decreaseAllowance",
      "outputs": [
        {
          "internalType": "bool",
          "name": "",
          "type": "bool"
        }
      ],
      "stateMutability": "nonpayable",
      "type": "function"
    },
    {
      "inputs": [
        {
          "internalType": "address",
          "name": "spender",
          "type": "address"
        },
        {
          "internalType": "uint256",
          "name": "addedValue",
          "type": "uint256"
        }
      ],
      "name": "increaseAllowance",
      "outputs": [
        {
          "internalType": "bool",
          "name": "",
          "type": "bool"
        }
      ],
      "stateMutability": "nonpayable",
      "type": "function"
    },
    {
      "inputs": [],
      "name": "name",
      "outputs": [
        {
          "internalType": "string",
          "name": "",
          "type": "string"
        }
      ],
      "stateMutability": "view",
      "type": "function"
    },
    {
      "inputs": [],
      "name": "owner",
      "outputs": [
        {
          "internalType": "address",
          "name": "",
          "type": "address"
        }
      ],
      "stateMutability": "view",
      "type": "function"
    },
    {
      "inputs": [],
      "name": "renounceOwnership",
      "outputs": [],
      "stateMutability": "nonpayable",
      "type": "function"
    },
    {
      "inputs": [],
      "name": "symbol",
      "outputs": [
        {
          "internalType": "string",
          "name": "",
          "type": "string"
        }
      ],
      "stateMutability": "view",
      "type": "function"
    },
    {
      "inputs": [],
      "name": "totalSupply",
      "outputs": [
        {
          "internalType": "uint256",
          "name": "",
          "type": "uint256"
        }
      ],
      "stateMutability": "view",
      "type": "function"
    },
    {
      "inputs": [
        {
          "internalType": "address",
          "name": "to",
          "type": "address"
        },
        {
          "internalType": "uint256",
          "name": "amount",
          "type": "uint256"
        }
      ],
      "name": "transfer",
      "outputs": [
        {
          "internalType": "bool",
          "name": "",
          "type": "bool"
        }
      ],
      "stateMutability": "nonpayable",
      "type": "function"
    },
    {
      "inputs": [
        {
          "internalType": "address",
          "name": "from",
          "type": "address"
        },
        {
          "internalType": "address",
          "name": "to",
          "type": "address"
        },
        {
          "internalType": "uint256",
          "name": "amount",
          "type": "uint256"
        }
      ],
      "name": "transferFrom",
      "outputs": [
        {
          "internalType": "bool",
          "name": "",
          "type": "bool"
        }
      ],
      "stateMutability": "nonpayable",
      "type": "function"
    },
    {
      "inputs": [
        {
          "internalType": "address",
          "name": "newOwner",
          "type": "address"
        }
      ],
      "name": "transferOwnership",
      "outputs": [],
      "stateMutability": "nonpayable",
      "type": "function"
    },
    {
      "stateMutability": "payable",
      "type": "receive"
    }
  ],
  "bytecode": "0x60806040523480156200001157600080fd5b5060405162000fd138038062000fd18339810160408190526200003491620001fd565b6040518060400160405280600681526020016553747265616d60d01b8152506040518060400160405280600681526020016553545245414d60d01b8152508160039081620000839190620002e0565b506004620000928282620002e0565b505050620000af620000a9620000dc60201b60201c565b620000e0565b620000d481620000c26012600a620004c1565b620000ce9085620004d9565b62000132565b505062000509565b3390565b600580546001600160a01b038381166001600160a01b0319831681179093556040519116919082907f8be0079c531659141344cd1fd0a4f28419497f9722a3daafe3b4186f6b6457e090600090a35050565b6001600160a01b0382166200018d5760405162461bcd60e51b815260206004820152601f60248201527f45524332303a206d696e7420746f20746865207a65726f206164647265737300604482015260640160405180910390fd5b8060026000828254620001a19190620004f3565b90915550506001600160a01b038216600081815260208181526040808320805486019055518481527fddf252ad1be2c89b69c2b068fc378daa952ba7f163c4a11628f55a4df523b3ef910160405180910390a35050565b505050565b600080604083850312156200021157600080fd5b825160208401519092506001600160a01b03811681146200023157600080fd5b809150509250929050565b634e487b7160e01b600052604160045260246000fd5b600181811c908216806200026757607f821691505b6020821081036200028857634e487b7160e01b600052602260045260246000fd5b50919050565b601f821115620001f857600081815260208120601f850160051c81016020861015620002b75750805b601f850160051c820191505b81811015620002d857828155600101620002c3565b505050505050565b81516001600160401b03811115620002fc57620002fc6200023c565b62000314816200030d845462000252565b846200028e565b602080601f8311600181146200034c5760008415620003335750858301515b600019600386901b1c1916600185901b178555620002d8565b600085815260208120601f198616915b828110156200037d578886015182559484019460019091019084016200035c565b50858210156200039c5787850151600019600388901b60f8161c191681555b5050505050600190811b01905550565b634e487b7160e01b600052601160045260246000fd5b600181815b8085111562000403578160001904821115620003e757620003e7620003ac565b80851615620003f557918102915b93841c9390800290620003c7565b509250929050565b6000826200041c57506001620004bb565b816200042b57506000620004bb565b81600181146200044457600281146200044f576200046f565b6001915050620004bb565b60ff841115620004635762000463620003ac565b50506001821b620004bb565b5060208310610133831016604e8410600b841016171562000494575081810a620004bb565b620004a08383620003c2565b8060001904821115620004b757620004b7620003ac565b0290505b92915050565b6000620004d260ff8416836200040b565b9392505050565b8082028115828204841417620004bb57620004bb620003ac565b80820180821115620004bb57620004bb620003ac565b610ab880620005196000396000f3fe6080604052600436106100e15760003560e01c8063715018a61161007f578063a457c2d711610059578063a457c2d71461024d578063a9059cbb1461026d578063dd62ed3e1461028d578063f2fde38b146102ad57600080fd5b8063715018a6146101f95780638da5cb5b1461021057806395d89b411461023857600080fd5b806323b872dd116100bb57806323b872dd14610167578063313ce5671461018757806339509351146101a357806370a08231146101c357600080fd5b806306fdde03146100ed578063095ea7b31461011857806318160ddd1461014857600080fd5b366100e857005b600080fd5b3480156100f957600080fd5b506101026102cd565b60405161010f9190610902565b60405180910390f35b34801561012457600080fd5b5061013861013336600461096c565b61035f565b604051901515815260200161010f565b34801561015457600080fd5b506002545b60405190815260200161010f565b34801561017357600080fd5b50610138610182366004610996565b610379565b34801561019357600080fd5b506040516012815260200161010f565b3480156101af57600080fd5b506101386101be36600461096c565b61039d565b3480156101cf57600080fd5b506101596101de3660046109d2565b6001600160a01b031660009081526020819052604090205490565b34801561020557600080fd5b5061020e6103bf565b005b34801561021c57600080fd5b506005546040516001600160a01b03909116815260200161010f565b34801561024457600080fd5b506101026103d3565b34801561025957600080fd5b5061013861026836600461096c565b6103e2565b34801561027957600080fd5b5061013861028836600461096c565b610462565b34801561029957600080fd5b506101596102a83660046109f4565b610470565b3480156102b957600080fd5b5061020e6102c83660046109d2565b61049b565b6060600380546102dc90610a27565b80601f016020809104026020016040519081016040528092919081815260200182805461030890610a27565b80156103555780601f1061032a57610100808354040283529160200191610355565b820191906000526020600020905b81548152906001019060200180831161033857829003601f168201915b5050505050905090565b60003361036d818585610514565b60019150505b92915050565b600033610387858285610638565b6103928585856106b2565b506001949350505050565b60003361036d8185856103b08383610470565b6103ba9190610a61565b610514565b6103c7610856565b6103d160006108b0565b565b6060600480546102dc90610a27565b600033816103f08286610470565b9050838110156104555760405162461bcd60e51b815260206004820152602560248201527f45524332303a2064656372656173656420616c6c6f77616e63652062656c6f77604482015264207a65726f60d81b60648201526084015b60405180910390fd5b6103928286868403610514565b60003361036d8185856106b2565b6001600160a01b03918216600090815260016020908152604080832093909416825291909152205490565b6104a3610856565b6001600160a01b0381166105085760405162461bcd60e51b815260206004820152602660248201527f4f776e61626c653a206e6577206f776e657220697320746865207a65726f206160448201526564647265737360d01b606482015260840161044c565b610511816108b0565b50565b6001600160a01b0383166105765760405162461bcd60e51b8152602060048201526024808201527f45524332303a20617070726f76652066726f6d20746865207a65726f206164646044820152637265737360e01b606482015260840161044c565b6001600160a01b0382166105d75760405162461bcd60e51b815260206004820152602260248201527f45524332303a20617070726f766520746f20746865207a65726f206164647265604482015261737360f01b606482015260840161044c565b6001600160a01b0383811660008181526001602090815260408083209487168084529482529182902085905590518481527f8c5be1e5ebec7d5bd14f71427d1e84f3dd0314c0f7b2291e5b200ac8c7c3b925910160405180910390a3505050565b60006106448484610470565b905060001981146106ac578181101561069f5760405162461bcd60e51b815260206004820152601d60248201527f45524332303a20696e73756666696369656e7420616c6c6f77616e6365000000604482015260640161044c565b6106ac8484848403610514565b50505050565b6001600160a01b0383166107165760405162461bcd60e51b815260206004820152602560248201527f45524332303a207472616e736665722066726f6d20746865207a65726f206164604482015264647265737360d81b606482015260840161044c565b6001600160a01b0382166107785760405162461bcd60e51b815260206004820152602360248201527f45524332303a207472616e7366657220746f20746865207a65726f206164647260448201526265737360e81b606482015260840161044c565b6001600160a01b038316600090815260208190526040902054818110156107f05760405162461bcd60e51b815260206004820152602660248201527f45524332303a207472616e7366657220616d6f756e7420657863656564732062604482015265616c616e636560d01b606482015260840161044c565b6001600160a01b03848116600081815260208181526040808320878703905593871680835291849020805487019055925185815290927fddf252ad1be2c89b69c2b068fc378daa952ba7f163c4a11628f55a4df523b3ef910160405180910390a36106ac565b6005546001600160a01b031633146103d15760405162461bcd60e51b815260206004820181905260248201527f4f776e61626c653a2063616c6c6572206973206e6f7420746865206f776e6572604482015260640161044c565b600580546001600160a01b038381166001600160a01b0319831681179093556040519116919082907f8be0079c531659141344cd1fd0a4f28419497f9722a3daafe3b4186f6b6457e090600090a35050565b600060208083528351808285015260005b8181101561092f57858101830151858201604001528201610913565b506000604082860101526040601f19601f8301168501019250505092915050565b80356001600160a01b038116811461096757600080fd5b919050565b6000806040838503121561097f57600080fd5b61098883610950565b946020939093013593505050565b6000806000606084860312156109ab57600080fd5b6109b484610950565b92506109c260208501610950565b9150604084013590509250925092565b6000602082840312156109e457600080fd5b6109ed82610950565b9392505050565b60008060408385031215610a0757600080fd5b610a1083610950565b9150610a1e60208401610950565b90509250929050565b600181811c90821680610a3b57607f821691505b602082108103610a5b57634e487b7160e01b600052602260045260246000fd5b50919050565b8082018082111561037357634e487b7160e01b600052601160045260246000fdfea2646970667358221220c32490867b773be182520bbae5a049af6a41496f15cef2359eb695839672cb5964736f6c63430008110033",
  "linkReferences": {},
  "deployedLinkReferences": {}
}