{
  "_format": "hh-sol-artifact-1",
  "contractName": "FileNFT",
  "sourceName": "contracts/Genic.sol",
  "abi": [
    {
      "inputs": [],
      "stateMutability": "nonpayable",
      "type": "constructor"
    },
    {
      "anonymous": false,
      "inputs": [
        {
          "indexed": true,
          "internalType": "address",
          "name": "owner",
          "type": "address"
        },
        {
          "indexed": true,
          "internalType": "address",
          "name": "approved",
          "type": "address"
        },
        {
          "indexed": true,
          "internalType": "uint256",
          "name": "tokenId",
          "type": "uint256"
        }
      ],
      "name": "Approval",
      "type": "event"
    },
    {
      "anonymous": false,
      "inputs": [
        {
          "indexed": true,
          "internalType": "address",
          "name": "owner",
          "type": "address"
        },
        {
          "indexed": true,
          "internalType": "address",
          "name": "operator",
          "type": "address"
        },
        {
          "indexed": false,
          "internalType": "bool",
          "name": "approved",
          "type": "bool"
        }
      ],
      "name": "ApprovalForAll",
      "type": "event"
    },
    {
      "anonymous": false,
      "inputs": [
        {
          "indexed": false,
          "internalType": "uint256",
          "name": "_fromTokenId",
          "type": "uint256"
        },
        {
          "indexed": false,
          "internalType": "uint256",
          "name": "_toTokenId",
          "type": "uint256"
        }
      ],
      "name": "BatchMetadataUpdate",
      "type": "event"
    },
    {
      "anonymous": false,
      "inputs": [
        {
          "indexed": false,
          "internalType": "uint256",
          "name": "_tokenId",
          "type": "uint256"
        }
      ],
      "name": "MetadataUpdate",
      "type": "event"
    },
    {
      "anonymous": false,
      "inputs": [
        {
          "indexed": false,
          "internalType": "address",
          "name": "account",
          "type": "address"
        }
      ],
      "name": "MonthlyPaymentMade",
      "type": "event"
    },
    {
      "anonymous": false,
      "inputs": [
        {
          "indexed": true,
          "internalType": "uint256",
          "name": "tokenId",
          "type": "uint256"
        },
        {
          "indexed": false,
          "internalType": "address",
          "name": "owner",
          "type": "address"
        },
        {
          "indexed": false,
          "internalType": "address",
          "name": "storageDrive",
          "type": "address"
        },
        {
          "indexed": false,
          "internalType": "string",
          "name": "fileName",
          "type": "string"
        },
        {
          "indexed": false,
          "internalType": "string",
          "name": "mdescription",
          "type": "string"
        },
        {
          "indexed": false,
          "internalType": "uint256",
          "name": "fileSize",
          "type": "uint256"
        },
        {
          "indexed": false,
          "internalType": "uint256",
          "name": "dateCreated",
          "type": "uint256"
        },
        {
          "indexed": false,
          "internalType": "bool",
          "name": "shared",
          "type": "bool"
        }
      ],
      "name": "StorageItemCreated",
      "type": "event"
    },
    {
      "anonymous": false,
      "inputs": [
        {
          "indexed": false,
          "internalType": "address",
          "name": "account",
          "type": "address"
        }
      ],
      "name": "SubscriptionMade",
      "type": "event"
    },
    {
      "anonymous": false,
      "inputs": [
        {
          "indexed": true,
          "internalType": "address",
          "name": "from",
          "type": "address"
        },
        {
          "indexed": true,
          "internalType": "address",
          "name": "to",
          "type": "address"
        },
        {
          "indexed": true,
          "internalType": "uint256",
          "name": "tokenId",
          "type": "uint256"
        }
      ],
      "name": "Transfer",
      "type": "event"
    },
    {
      "anonymous": false,
      "inputs": [
        {
          "indexed": true,
          "internalType": "uint256",
          "name": "vId",
          "type": "uint256"
        },
        {
          "indexed": false,
          "internalType": "uint256",
          "name": "tokenId",
          "type": "uint256"
        },
        {
          "indexed": false,
          "internalType": "address",
          "name": "visitor",
          "type": "address"
        }
      ],
      "name": "ViewItemCreated",
      "type": "event"
    },
    {
      "inputs": [],
      "name": "_tokenIds",
      "outputs": [
        {
          "internalType": "uint256",
          "name": "_value",
          "type": "uint256"
        }
      ],
      "stateMutability": "view",
      "type": "function"
    },
    {
      "inputs": [],
      "name": "_viewIds",
      "outputs": [
        {
          "internalType": "uint256",
          "name": "_value",
          "type": "uint256"
        }
      ],
      "stateMutability": "view",
      "type": "function"
    },
    {
      "inputs": [
        {
          "internalType": "address",
          "name": "to",
          "type": "address"
        },
        {
          "internalType": "uint256",
          "name": "tokenId",
          "type": "uint256"
        }
      ],
      "name": "approve",
      "outputs": [],
      "stateMutability": "nonpayable",
      "type": "function"
    },
    {
      "inputs": [
        {
          "internalType": "address",
          "name": "owner",
          "type": "address"
        }
      ],
      "name": "balanceOf",
      "outputs": [
        {
          "internalType": "uint256",
          "name": "",
          "type": "uint256"
        }
      ],
      "stateMutability": "view",
      "type": "function"
    },
    {
      "inputs": [
        {
          "internalType": "string",
          "name": "tokenURI",
          "type": "string"
        },
        {
          "internalType": "string",
          "name": "fileName",
          "type": "string"
        },
        {
          "internalType": "string",
          "name": "description",
          "type": "string"
        },
        {
          "internalType": "uint256",
          "name": "fileSize",
          "type": "uint256"
        }
      ],
      "name": "createFile",
      "outputs": [
        {
          "internalType": "uint256",
          "name": "",
          "type": "uint256"
        }
      ],
      "stateMutability": "payable",
      "type": "function"
    },
    {
      "inputs": [
        {
          "internalType": "uint256",
          "name": "tokenId",
          "type": "uint256"
        }
      ],
      "name": "createViewItem",
      "outputs": [],
      "stateMutability": "nonpayable",
      "type": "function"
    },
    {
      "inputs": [],
      "name": "fetchAllStorageItems",
      "outputs": [
        {
          "components": [
            {
              "internalType": "uint256",
              "name": "tokenId",
              "type": "uint256"
            },
            {
              "internalType": "address",
              "name": "owner",
              "type": "address"
            },
            {
              "internalType": "address",
              "name": "storageDrive",
              "type": "address"
            },
            {
              "internalType": "string",
              "name": "fileName",
              "type": "string"
            },
            {
              "internalType": "string",
              "name": "description",
              "type": "string"
            },
            {
              "internalType": "uint256",
              "name": "fileSize",
              "type": "uint256"
            },
            {
              "internalType": "uint256",
              "name": "dateCreated",
              "type": "uint256"
            },
            {
              "internalType": "bool",
              "name": "shared",
              "type": "bool"
            }
          ],
          "internalType": "struct FileNFT.StorageItem[]",
          "name": "",
          "type": "tuple[]"
        }
      ],
      "stateMutability": "view",
      "type": "function"
    },
    {
      "inputs": [],
      "name": "fetchMyFiles",
      "outputs": [
        {
          "components": [
            {
              "internalType": "uint256",
              "name": "tokenId",
              "type": "uint256"
            },
            {
              "internalType": "address",
              "name": "owner",
              "type": "address"
            },
            {
              "internalType": "address",
              "name": "storageDrive",
              "type": "address"
            },
            {
              "internalType": "string",
              "name": "fileName",
              "type": "string"
            },
            {
              "internalType": "string",
              "name": "description",
              "type": "string"
            },
            {
              "internalType": "uint256",
              "name": "fileSize",
              "type": "uint256"
            },
            {
              "internalType": "uint256",
              "name": "dateCreated",
              "type": "uint256"
            },
            {
              "internalType": "bool",
              "name": "shared",
              "type": "bool"
            }
          ],
          "internalType": "struct FileNFT.StorageItem[]",
          "name": "",
          "type": "tuple[]"
        }
      ],
      "stateMutability": "view",
      "type": "function"
    },
    {
      "inputs": [
        {
          "internalType": "uint256",
          "name": "_tokenId",
          "type": "uint256"
        }
      ],
      "name": "fetchOneNews",
      "outputs": [
        {
          "components": [
            {
              "internalType": "uint256",
              "name": "tokenId",
              "type": "uint256"
            },
            {
              "internalType": "address",
              "name": "owner",
              "type": "address"
            },
            {
              "internalType": "address",
              "name": "storageDrive",
              "type": "address"
            },
            {
              "internalType": "string",
              "name": "fileName",
              "type": "string"
            },
            {
              "internalType": "string",
              "name": "description",
              "type": "string"
            },
            {
              "internalType": "uint256",
              "name": "fileSize",
              "type": "uint256"
            },
            {
              "internalType": "uint256",
              "name": "dateCreated",
              "type": "uint256"
            },
            {
              "internalType": "bool",
              "name": "shared",
              "type": "bool"
            }
          ],
          "internalType": "struct FileNFT.StorageItem[]",
          "name": "",
          "type": "tuple[]"
        }
      ],
      "stateMutability": "view",
      "type": "function"
    },
    {
      "inputs": [
        {
          "internalType": "uint256",
          "name": "_tokenId",
          "type": "uint256"
        }
      ],
      "name": "fetchViews",
      "outputs": [
        {
          "internalType": "uint256",
          "name": "",
          "type": "uint256"
        }
      ],
      "stateMutability": "view",
      "type": "function"
    },
    {
      "inputs": [
        {
          "internalType": "uint256",
          "name": "tokenId",
          "type": "uint256"
        }
      ],
      "name": "getApproved",
      "outputs": [
        {
          "internalType": "address",
          "name": "",
          "type": "address"
        }
      ],
      "stateMutability": "view",
      "type": "function"
    },
    {
      "inputs": [
        {
          "internalType": "address",
          "name": "owner",
          "type": "address"
        },
        {
          "internalType": "address",
          "name": "operator",
          "type": "address"
        }
      ],
      "name": "isApprovedForAll",
      "outputs": [
        {
          "internalType": "bool",
          "name": "",
          "type": "bool"
        }
      ],
      "stateMutability": "view",
      "type": "function"
    },
    {
      "inputs": [],
      "name": "name",
      "outputs": [
        {
          "internalType": "string",
          "name": "",
          "type": "string"
        }
      ],
      "stateMutability": "view",
      "type": "function"
    },
    {
      "inputs": [
        {
          "internalType": "uint256",
          "name": "tokenId",
          "type": "uint256"
        }
      ],
      "name": "ownerOf",
      "outputs": [
        {
          "internalType": "address",
          "name": "",
          "type": "address"
        }
      ],
      "stateMutability": "view",
      "type": "function"
    },
    {
      "inputs": [],
      "name": "payMonthlyValue",
      "outputs": [],
      "stateMutability": "payable",
      "type": "function"
    },
    {
      "inputs": [
        {
          "internalType": "address",
          "name": "from",
          "type": "address"
        },
        {
          "internalType": "address",
          "name": "to",
          "type": "address"
        },
        {
          "internalType": "uint256",
          "name": "tokenId",
          "type": "uint256"
        }
      ],
      "name": "safeTransferFrom",
      "outputs": [],
      "stateMutability": "nonpayable",
      "type": "function"
    },
    {
      "inputs": [
        {
          "internalType": "address",
          "name": "from",
          "type": "address"
        },
        {
          "internalType": "address",
          "name": "to",
          "type": "address"
        },
        {
          "internalType": "uint256",
          "name": "tokenId",
          "type": "uint256"
        },
        {
          "internalType": "bytes",
          "name": "data",
          "type": "bytes"
        }
      ],
      "name": "safeTransferFrom",
      "outputs": [],
      "stateMutability": "nonpayable",
      "type": "function"
    },
    {
      "inputs": [
        {
          "internalType": "address",
          "name": "operator",
          "type": "address"
        },
        {
          "internalType": "bool",
          "name": "approved",
          "type": "bool"
        }
      ],
      "name": "setApprovalForAll",
      "outputs": [],
      "stateMutability": "nonpayable",
      "type": "function"
    },
    {
      "inputs": [],
      "name": "subscribe",
      "outputs": [],
      "stateMutability": "payable",
      "type": "function"
    },
    {
      "inputs": [
        {
          "internalType": "bytes4",
          "name": "interfaceId",
          "type": "bytes4"
        }
      ],
      "name": "supportsInterface",
      "outputs": [
        {
          "internalType": "bool",
          "name": "",
          "type": "bool"
        }
      ],
      "stateMutability": "view",
      "type": "function"
    },
    {
      "inputs": [],
      "name": "symbol",
      "outputs": [
        {
          "internalType": "string",
          "name": "",
          "type": "string"
        }
      ],
      "stateMutability": "view",
      "type": "function"
    },
    {
      "inputs": [
        {
          "internalType": "uint256",
          "name": "tokenId",
          "type": "uint256"
        }
      ],
      "name": "tokenURI",
      "outputs": [
        {
          "internalType": "string",
          "name": "",
          "type": "string"
        }
      ],
      "stateMutability": "view",
      "type": "function"
    },
    {
      "inputs": [
        {
          "internalType": "address",
          "name": "from",
          "type": "address"
        },
        {
          "internalType": "address",
          "name": "to",
          "type": "address"
        },
        {
          "internalType": "uint256",
          "name": "tokenId",
          "type": "uint256"
        }
      ],
      "name": "transferFrom",
      "outputs": [],
      "stateMutability": "nonpayable",
      "type": "function"
    },
    {
      "inputs": [
        {
          "internalType": "uint256",
          "name": "value",
          "type": "uint256"
        }
      ],
      "name": "withdraw",
      "outputs": [],
      "stateMutability": "nonpayable",
      "type": "function"
    }
  ],
  "bytecode": "0x60806040523480156200001157600080fd5b506040518060400160405280600c81526020016b53747265616d6147656e696360a01b8152506040518060400160405280600581526020016447454e494360d81b81525081600090816200006691906200013c565b5060016200007582826200013c565b5050600b80546001600160a01b0319163317905550620186a0600a5562000208565b634e487b7160e01b600052604160045260246000fd5b600181811c90821680620000c257607f821691505b602082108103620000e357634e487b7160e01b600052602260045260246000fd5b50919050565b601f8211156200013757600081815260208120601f850160051c81016020861015620001125750805b601f850160051c820191505b8181101562000133578281556001016200011e565b5050505b505050565b81516001600160401b0381111562000158576200015862000097565b6200017081620001698454620000ad565b84620000e9565b602080601f831160018114620001a857600084156200018f5750858301515b600019600386901b1c1916600185901b17855562000133565b600085815260208120601f198616915b82811015620001d957888601518255948401946001909101908401620001b8565b5085821015620001f85787850151600019600388901b60f8161c191681555b5050505050600190811b01905550565b61281080620002186000396000f3fe60806040526004361061014b5760003560e01c806370a08231116100b6578063b0b441061161006f578063b0b4410614610382578063b88d4fde146103a2578063c327bd4e146103c2578063c87b56dd146103d5578063e985e9c5146103f5578063fef6b3271461041557600080fd5b806370a08231146102eb5780638f449a0514610319578063957b5ba31461032157806395d89b4114610336578063a22cb4651461034b578063aa46a4001461036b57600080fd5b80632e1a7d4d116101085780632e1a7d4d1461024e578063347cfeab1461026e57806337a89986146102765780633c8f28231461028b57806342842e0e146102ab5780636352211e146102cb57600080fd5b806301ffc9a71461015057806306fdde0314610185578063081812fc146101a7578063095ea7b3146101df57806323b872dd1461020157806325609d9114610221575b600080fd5b34801561015c57600080fd5b5061017061016b366004612022565b61042c565b60405190151581526020015b60405180910390f35b34801561019157600080fd5b5061019a610457565b60405161017c919061208f565b3480156101b357600080fd5b506101c76101c23660046120a2565b6104e9565b6040516001600160a01b03909116815260200161017c565b3480156101eb57600080fd5b506101ff6101fa3660046120d7565b610510565b005b34801561020d57600080fd5b506101ff61021c366004612101565b61062a565b34801561022d57600080fd5b5061024161023c3660046120a2565b61065b565b60405161017c919061213d565b34801561025a57600080fd5b506101ff6102693660046120a2565b61093c565b6101ff610a83565b34801561028257600080fd5b50610241610b51565b34801561029757600080fd5b506101ff6102a63660046120a2565b610de6565b3480156102b757600080fd5b506101ff6102c6366004612101565b610e97565b3480156102d757600080fd5b506101c76102e63660046120a2565b610eb2565b3480156102f757600080fd5b5061030b61030636600461222b565b610f12565b60405190815260200161017c565b6101ff610f98565b34801561032d57600080fd5b50610241611043565b34801561034257600080fd5b5061019a611339565b34801561035757600080fd5b506101ff610366366004612246565b611348565b34801561037757600080fd5b5060075461030b9081565b34801561038e57600080fd5b5061030b61039d3660046120a2565b611353565b3480156103ae57600080fd5b506101ff6103bd36600461230e565b6113b4565b61030b6103d03660046123aa565b6113ec565b3480156103e157600080fd5b5061019a6103f03660046120a2565b611434565b34801561040157600080fd5b5061017061041036600461243a565b61153c565b34801561042157600080fd5b5060095461030b9081565b60006001600160e01b03198216632483248360e11b148061045157506104518261156a565b92915050565b6060600080546104669061246d565b80601f01602080910402602001604051908101604052809291908181526020018280546104929061246d565b80156104df5780601f106104b4576101008083540402835291602001916104df565b820191906000526020600020905b8154815290600101906020018083116104c257829003601f168201915b5050505050905090565b60006104f4826115ba565b506000908152600460205260409020546001600160a01b031690565b600061051b82610eb2565b9050806001600160a01b0316836001600160a01b03160361058d5760405162461bcd60e51b815260206004820152602160248201527f4552433732313a20617070726f76616c20746f2063757272656e74206f776e656044820152603960f91b60648201526084015b60405180910390fd5b336001600160a01b03821614806105a957506105a9813361153c565b61061b5760405162461bcd60e51b815260206004820152603d60248201527f4552433732313a20617070726f76652063616c6c6572206973206e6f7420746f60448201527f6b656e206f776e6572206f7220617070726f76656420666f7220616c6c0000006064820152608401610584565b610625838361161c565b505050565b610634338261168a565b6106505760405162461bcd60e51b8152600401610584906124a7565b6106258383836116e8565b6060600061066860075490565b905060008060005b838110156106bf5785600d600061068884600161250a565b815260200190815260200160002060000154036106ad576106aa60018461250a565b92505b806106b78161251d565b915050610670565b5060008267ffffffffffffffff8111156106db576106db612282565b60405190808252806020026020018201604052801561071457816020015b610701611fb3565b8152602001906001900390816106f95790505b50905060005b848110156109325786600d600061073284600161250a565b8152602001908152602001600020600001540361092057600061075682600161250a565b6000818152600d60209081526040918290208251610100810184528154815260018201546001600160a01b03908116938201939093526002820154909216928201929092526003820180549394509192909183916060840191906107b99061246d565b80601f01602080910402602001604051908101604052809291908181526020018280546107e59061246d565b80156108325780601f1061080757610100808354040283529160200191610832565b820191906000526020600020905b81548152906001019060200180831161081557829003601f168201915b5050505050815260200160048201805461084b9061246d565b80601f01602080910402602001604051908101604052809291908181526020018280546108779061246d565b80156108c45780601f10610899576101008083540402835291602001916108c4565b820191906000526020600020905b8154815290600101906020018083116108a757829003601f168201915b5050509183525050600582015460208201526006820154604082015260079091015460ff161515606090910152845185908790811061090557610905612536565b602090810291909101015261091b60018661250a565b945050505b8061092a8161251d565b91505061071a565b5095945050505050565b600b546001600160a01b031633146109965760405162461bcd60e51b815260206004820152601860248201527f41646472657373206973206e6f7420746865206f776e657200000000000000006044820152606401610584565b478111156109e65760405162461bcd60e51b815260206004820152601a60248201527f56616c756520686967686572207468616e2062616c616e63652e0000000000006044820152606401610584565b600b546040516000916001600160a01b03169083908381818185875af1925050503d8060008114610a33576040519150601f19603f3d011682016040523d82523d6000602084013e610a38565b606091505b5050905080610a7f5760405162461bcd60e51b815260206004820152601360248201527254686572652077617320616e206572726f722160681b6044820152606401610584565b5050565b336000908152600c602052604090205460ff16610adb5760405162461bcd60e51b81526020600482015260166024820152751058d8dbdd5b9d081b9bdd081cdd589cd8dc9a58995960521b6044820152606401610584565b600a543414610b1b5760405162461bcd60e51b815260206004820152600c60248201526b2bb937b733903b30b63ab29760a11b6044820152606401610584565b6040513381527f342391d881b260faba344bcdceb81718335063790ef64b017dfe1fbec5eb7d91906020015b60405180910390a1565b60606000610b5e60075490565b90506000808267ffffffffffffffff811115610b7c57610b7c612282565b604051908082528060200260200182016040528015610bb557816020015b610ba2611fb3565b815260200190600190039081610b9a5790505b50905060005b83811015610dde5730600d6000610bd384600161250a565b81526020810191909152604001600020600201546001600160a01b031603610dcc576000610c0282600161250a565b6000818152600d60209081526040918290208251610100810184528154815260018201546001600160a01b0390811693820193909352600282015490921692820192909252600382018054939450919290918391606084019190610c659061246d565b80601f0160208091040260200160405190810160405280929190818152602001828054610c919061246d565b8015610cde5780601f10610cb357610100808354040283529160200191610cde565b820191906000526020600020905b815481529060010190602001808311610cc157829003601f168201915b50505050508152602001600482018054610cf79061246d565b80601f0160208091040260200160405190810160405280929190818152602001828054610d239061246d565b8015610d705780601f10610d4557610100808354040283529160200191610d70565b820191906000526020600020905b815481529060010190602001808311610d5357829003601f168201915b5050509183525050600582015460208201526006820154604082015260079091015460ff1615156060909101528451859087908110610db157610db1612536565b6020908102919091010152610dc760018661250a565b945050505b80610dd68161251d565b915050610bbb565b509392505050565b610df4600980546001019055565b6000610dff60095490565b604080516060810182528281526020808201868152338385018181526000878152600e855286902094518555915160018501559051600290930180546001600160a01b0319166001600160a01b039094169390931790925582518681529081019190915291925082917f76eeab97092ad834df0b561eae45cd54f5583ebef4240be2483d115d9fb4ed61910160405180910390a25050565b610625838383604051806020016040528060008152506113b4565b6000818152600260205260408120546001600160a01b0316806104515760405162461bcd60e51b8152602060048201526018602482015277115490cdcc8c4e881a5b9d985b1a59081d1bdad95b88125160421b6044820152606401610584565b60006001600160a01b038216610f7c5760405162461bcd60e51b815260206004820152602960248201527f4552433732313a2061646472657373207a65726f206973206e6f7420612076616044820152683634b21037bbb732b960b91b6064820152608401610584565b506001600160a01b031660009081526003602052604090205490565b336000908152600c602052604090205460ff1615610ff85760405162461bcd60e51b815260206004820152601a60248201527f4163636f756e7420616c726561647920737562736372696265640000000000006044820152606401610584565b336000818152600c6020908152604091829020805460ff1916600117905590519182527f0a4aaad73235c04f36913f1a722df062186fab3d31654a6d28265e505d9e16139101610b47565b6060600061105060075490565b905060008060005b838110156110b25733600d600061107084600161250a565b81526020810191909152604001600020600101546001600160a01b0316036110a05761109d60018461250a565b92505b806110aa8161251d565b915050611058565b5060008267ffffffffffffffff8111156110ce576110ce612282565b60405190808252806020026020018201604052801561110757816020015b6110f4611fb3565b8152602001906001900390816110ec5790505b50905060005b848110156113305733600d600061112584600161250a565b81526020810191909152604001600020600101546001600160a01b03160361131e57600061115482600161250a565b6000818152600d60209081526040918290208251610100810184528154815260018201546001600160a01b03908116938201939093526002820154909216928201929092526003820180549394509192909183916060840191906111b79061246d565b80601f01602080910402602001604051908101604052809291908181526020018280546111e39061246d565b80156112305780601f1061120557610100808354040283529160200191611230565b820191906000526020600020905b81548152906001019060200180831161121357829003601f168201915b505050505081526020016004820180546112499061246d565b80601f01602080910402602001604051908101604052809291908181526020018280546112759061246d565b80156112c25780601f10611297576101008083540402835291602001916112c2565b820191906000526020600020905b8154815290600101906020018083116112a557829003601f168201915b5050509183525050600582015460208201526006820154604082015260079091015460ff161515606090910152845185908790811061130357611303612536565b602090810291909101015261131960018661250a565b945050505b806113288161251d565b91505061110d565b50949350505050565b6060600180546104669061246d565b610a7f33838361184c565b60008061135f60095490565b90506000805b82811015610dde5784600e600061137d84600161250a565b815260200190815260200160002060010154036113a25761139f60018361250a565b91505b806113ac8161251d565b915050611365565b6113be338361168a565b6113da5760405162461bcd60e51b8152600401610584906124a7565b6113e68484848461191a565b50505050565b60006113fc600780546001019055565b600061140760075490565b9050611413338261194d565b61141d8187611ad8565b61142981868686611ba3565b90505b949350505050565b606061143f826115ba565b600082815260066020526040812080546114589061246d565b80601f01602080910402602001604051908101604052809291908181526020018280546114849061246d565b80156114d15780601f106114a6576101008083540402835291602001916114d1565b820191906000526020600020905b8154815290600101906020018083116114b457829003601f168201915b5050505050905060006114ef60408051602081019091526000815290565b90508051600003611501575092915050565b81511561153357808260405160200161151b92919061254c565b60405160208183030381529060405292505050919050565b61142c84611cd6565b6001600160a01b03918216600090815260056020908152604080832093909416825291909152205460ff1690565b60006001600160e01b031982166380ac58cd60e01b148061159b57506001600160e01b03198216635b5e139f60e01b145b8061045157506301ffc9a760e01b6001600160e01b0319831614610451565b6000818152600260205260409020546001600160a01b03166116195760405162461bcd60e51b8152602060048201526018602482015277115490cdcc8c4e881a5b9d985b1a59081d1bdad95b88125160421b6044820152606401610584565b50565b600081815260046020526040902080546001600160a01b0319166001600160a01b038416908117909155819061165182610eb2565b6001600160a01b03167f8c5be1e5ebec7d5bd14f71427d1e84f3dd0314c0f7b2291e5b200ac8c7c3b92560405160405180910390a45050565b60008061169683610eb2565b9050806001600160a01b0316846001600160a01b031614806116bd57506116bd818561153c565b8061142c5750836001600160a01b03166116d6846104e9565b6001600160a01b031614949350505050565b826001600160a01b03166116fb82610eb2565b6001600160a01b0316146117215760405162461bcd60e51b81526004016105849061257b565b6001600160a01b0382166117835760405162461bcd60e51b8152602060048201526024808201527f4552433732313a207472616e7366657220746f20746865207a65726f206164646044820152637265737360e01b6064820152608401610584565b826001600160a01b031661179682610eb2565b6001600160a01b0316146117bc5760405162461bcd60e51b81526004016105849061257b565b600081815260046020908152604080832080546001600160a01b03199081169091556001600160a01b0387811680865260038552838620805460001901905590871680865283862080546001019055868652600290945282852080549092168417909155905184937fddf252ad1be2c89b69c2b068fc378daa952ba7f163c4a11628f55a4df523b3ef91a4505050565b816001600160a01b0316836001600160a01b0316036118ad5760405162461bcd60e51b815260206004820152601960248201527f4552433732313a20617070726f766520746f2063616c6c6572000000000000006044820152606401610584565b6001600160a01b03838116600081815260056020908152604080832094871680845294825291829020805460ff191686151590811790915591519182527f17307eab39ab6107e8899845ad3d59bd9653f200f220920489ca2b5937696c31910160405180910390a3505050565b6119258484846116e8565b61193184848484611d4a565b6113e65760405162461bcd60e51b8152600401610584906125c0565b6001600160a01b0382166119a35760405162461bcd60e51b815260206004820181905260248201527f4552433732313a206d696e7420746f20746865207a65726f20616464726573736044820152606401610584565b6000818152600260205260409020546001600160a01b031615611a085760405162461bcd60e51b815260206004820152601c60248201527f4552433732313a20746f6b656e20616c7265616479206d696e746564000000006044820152606401610584565b6000818152600260205260409020546001600160a01b031615611a6d5760405162461bcd60e51b815260206004820152601c60248201527f4552433732313a20746f6b656e20616c7265616479206d696e746564000000006044820152606401610584565b6001600160a01b038216600081815260036020908152604080832080546001019055848352600290915280822080546001600160a01b0319168417905551839291907fddf252ad1be2c89b69c2b068fc378daa952ba7f163c4a11628f55a4df523b3ef908290a45050565b6000828152600260205260409020546001600160a01b0316611b535760405162461bcd60e51b815260206004820152602e60248201527f45524337323155524953746f726167653a2055524920736574206f66206e6f6e60448201526d32bc34b9ba32b73a103a37b5b2b760911b6064820152608401610584565b6000828152600660205260409020611b6b8282612660565b506040518281527ff8e1a15aba9398e019f0b49df1a4fde98ee17ae345cb5f6b5e2c27f5033e8ce79060200160405180910390a15050565b604080516101008101825285815233602080830191825230838501908152606084018881526080850188905260a085018790524260c0860152600060e086018190528a8152600d909352949091208351815591516001830180546001600160a01b03199081166001600160a01b03938416179091559151600284018054909316911617905591519091906003820190611c3c9082612660565b5060808201516004820190611c519082612660565b5060a0820151600582015560c0820151600682015560e0909101516007909101805460ff1916911515919091179055611c8b3330866116e8565b837f9c2c6412b197874bb9a87263f20fcacb261caadf7b97137d9a943332188d521d3330868686426000604051611cc89796959493929190612720565b60405180910390a250505050565b6060611ce1826115ba565b6000611cf860408051602081019091526000815290565b90506000815111611d185760405180602001604052806000815250611d43565b80611d2284611e48565b604051602001611d3392919061254c565b6040516020818303038152906040525b9392505050565b60006001600160a01b0384163b15611e4057604051630a85bd0160e11b81526001600160a01b0385169063150b7a0290611d8e903390899088908890600401612780565b6020604051808303816000875af1925050508015611dc9575060408051601f3d908101601f19168201909252611dc6918101906127bd565b60015b611e26573d808015611df7576040519150601f19603f3d011682016040523d82523d6000602084013e611dfc565b606091505b508051600003611e1e5760405162461bcd60e51b8152600401610584906125c0565b805181602001fd5b6001600160e01b031916630a85bd0160e11b14905061142c565b50600161142c565b60606000611e5583611edb565b600101905060008167ffffffffffffffff811115611e7557611e75612282565b6040519080825280601f01601f191660200182016040528015611e9f576020820181803683370190505b5090508181016020015b600019016f181899199a1a9b1b9c1cb0b131b232b360811b600a86061a8153600a8504945084611ea957509392505050565b60008072184f03e93ff9f4daa797ed6e38ed64bf6a1f0160401b8310611f1a5772184f03e93ff9f4daa797ed6e38ed64bf6a1f0160401b830492506040015b6d04ee2d6d415b85acef81000000008310611f46576d04ee2d6d415b85acef8100000000830492506020015b662386f26fc100008310611f6457662386f26fc10000830492506010015b6305f5e1008310611f7c576305f5e100830492506008015b6127108310611f9057612710830492506004015b60648310611fa2576064830492506002015b600a83106104515760010192915050565b6040518061010001604052806000815260200160006001600160a01b0316815260200160006001600160a01b03168152602001606081526020016060815260200160008152602001600081526020016000151581525090565b6001600160e01b03198116811461161957600080fd5b60006020828403121561203457600080fd5b8135611d438161200c565b60005b8381101561205a578181015183820152602001612042565b50506000910152565b6000815180845261207b81602086016020860161203f565b601f01601f19169290920160200192915050565b602081526000611d436020830184612063565b6000602082840312156120b457600080fd5b5035919050565b80356001600160a01b03811681146120d257600080fd5b919050565b600080604083850312156120ea57600080fd5b6120f3836120bb565b946020939093013593505050565b60008060006060848603121561211657600080fd5b61211f846120bb565b925061212d602085016120bb565b9150604084013590509250925092565b60006020808301818452808551808352604092508286019150828160051b87010184880160005b8381101561221d57888303603f19018552815180518452878101516001600160a01b03168885015286810151610100906121a8898701826001600160a01b03169052565b5060608083015182828801526121c083880182612063565b92505050608080830151868303828801526121db8382612063565b60a0858101519089015260c0808601519089015260e094850151801515868a01529490935091506122099050565b509588019593505090860190600101612164565b509098975050505050505050565b60006020828403121561223d57600080fd5b611d43826120bb565b6000806040838503121561225957600080fd5b612262836120bb565b91506020830135801515811461227757600080fd5b809150509250929050565b634e487b7160e01b600052604160045260246000fd5b600067ffffffffffffffff808411156122b3576122b3612282565b604051601f8501601f19908116603f011681019082821181831017156122db576122db612282565b816040528093508581528686860111156122f457600080fd5b858560208301376000602087830101525050509392505050565b6000806000806080858703121561232457600080fd5b61232d856120bb565b935061233b602086016120bb565b925060408501359150606085013567ffffffffffffffff81111561235e57600080fd5b8501601f8101871361236f57600080fd5b61237e87823560208401612298565b91505092959194509250565b600082601f83011261239b57600080fd5b611d4383833560208501612298565b600080600080608085870312156123c057600080fd5b843567ffffffffffffffff808211156123d857600080fd5b6123e48883890161238a565b955060208701359150808211156123fa57600080fd5b6124068883890161238a565b9450604087013591508082111561241c57600080fd5b506124298782880161238a565b949793965093946060013593505050565b6000806040838503121561244d57600080fd5b612456836120bb565b9150612464602084016120bb565b90509250929050565b600181811c9082168061248157607f821691505b6020821081036124a157634e487b7160e01b600052602260045260246000fd5b50919050565b6020808252602d908201527f4552433732313a2063616c6c6572206973206e6f7420746f6b656e206f776e6560408201526c1c881bdc88185c1c1c9bdd9959609a1b606082015260800190565b634e487b7160e01b600052601160045260246000fd5b80820180821115610451576104516124f4565b60006001820161252f5761252f6124f4565b5060010190565b634e487b7160e01b600052603260045260246000fd5b6000835161255e81846020880161203f565b83519083019061257281836020880161203f565b01949350505050565b60208082526025908201527f4552433732313a207472616e736665722066726f6d20696e636f72726563742060408201526437bbb732b960d91b606082015260800190565b60208082526032908201527f4552433732313a207472616e7366657220746f206e6f6e20455243373231526560408201527131b2b4bb32b91034b6b83632b6b2b73a32b960711b606082015260800190565b601f82111561062557600081815260208120601f850160051c810160208610156126395750805b601f850160051c820191505b8181101561265857828155600101612645565b505050505050565b815167ffffffffffffffff81111561267a5761267a612282565b61268e81612688845461246d565b84612612565b602080601f8311600181146126c357600084156126ab5750858301515b600019600386901b1c1916600185901b178555612658565b600085815260208120601f198616915b828110156126f2578886015182559484019460019091019084016126d3565b50858210156127105787850151600019600388901b60f8161c191681555b5050505050600190811b01905550565b6001600160a01b0388811682528716602082015260e06040820181905260009061274c90830188612063565b828103606084015261275e8188612063565b6080840196909652505060a0810192909252151560c090910152949350505050565b6001600160a01b03858116825284166020820152604081018390526080606082018190526000906127b390830184612063565b9695505050505050565b6000602082840312156127cf57600080fd5b8151611d438161200c56fea264697066735822122005f72b9cd58a9e0684f923895ecd85d063de81afb2912ac07e2dab8e187b025d64736f6c63430008110033",
  "linkReferences": {},
  "deployedLinkReferences": {}
}